:1000000004C1000033C1000031C100002FC1000055
:100010002DC100002BC1000029C1000027C1000034
:1000200025C1000023C1000021C100001FC1000044
:100030001DC100000C94420819C1000017C1000046
:1000400015C1000013C1000011C100000FC1000064
:100050000DC100000BC1000009C100000C94000993
:1000600005C100000C94CA080C94A108FFC0000050
:10007000FDC00000FBC00000F9C00000F7C0000098
:10008000F5C00000F3C00000F1C00000EFC00000A8
:10009000EDC00000EBC00000E9C00000E7C00000B8
:1000A000E5C00000E3C00000E1C00000DFC00000C8
:1000B000DDC00000DBC00000D9C00000D7C00000D8
:1000C000D5C00000D3C00000D1C00000CFC00000E8
:1000D000CDC00000CBC00000C9C00000C7C00000F8
:1000E000C5C0000000002100240027002A002D00C8
:1000F0003000330001010000040107010A01000083
:1001000020002300260029002C002F0032000001CF
:10011000000003010601090100000A0B02090C0D91
:100120000E080703040100000000000000000000AA
:1001300000000000000000000000000000000000BF
:10014000000000001211100000000000000000007C
:10015000000000000000000000000000000001029C
:1001600010202008081020401020408002010201C9
:100170000804020101020408102040808040201081
:1001800008040201800402018040201008040201DA
:100190000804020101020408102040800102040842
:1001A0001020408000002200250028002B002E0097
:1001B0003100340002010000050108010B010505B2
:1001C0000505070508080808020202020A0A0808CD
:1001D00004040404010101010101010103030303FB
:1001E00003030303040707070C0C0C0C0C0C0C0C8A
:1001F0000202020206060606060606060B0B0B0B9B
:100200000B0B0B0B02004A091B0F11241FBECFEF73
:10021000D1E2DEBFCDBF00E00CBF14E0A0E0B2E051
:10022000EAE7F9E200E00BBF02C007900D92AC359F
:10023000B107D9F727E0ACE5B4E001C01D92A131C8
:10024000B207E1F711E0C4E0D1E000E006C0219779
:100250000109802FFE010E947112C330D10780E096
:100260000807A9F70E94620A0C94AC14C9CE0F9338
:100270001F93CF93DF939B01AC01CAE5D5E0E889DA
:10028000F98982E08083EC85FD8510820E851F85CB
:1002900060E079E08DE390E00E942F112150310958
:1002A000410951095695479537952795F8012083BF
:1002B000188EEC89FD8986E08083EA89FB8980813C
:1002C00080618083EA89FB89808188608083EA89F4
:1002D000FB89808180688083EA89FB8980818F7DAA
:1002E0008083DF91CF911F910F9108950895FC01B4
:1002F000248135816217730748F4808191810097CA
:1003000029F0860F971FFC018081089580E00895F1
:10031000AF92BF92CF92DF92EF92FF920F931F9313
:10032000CF93DF936C017B018B01040F151FEB0151
:100330005E01AE18BF08C017D10759F06991D60108
:10034000ED91FC910190F081E02DC6011995892B6A
:1003500079F7C501DF91CF911F910F91FF90EF9039
:10036000DF90CF90BF90AF900895FC01538D448DE6
:10037000252F30E0842F90E0821B930B541710F050
:10038000CF96089501970895FC01918D828D98175D
:1003900061F0A28DAE0FBF2FB11D5D968C91928D35
:1003A0009F5F9F73928F90E008958FEF9FEF089566
:1003B000FC01918D828D981731F0828DE80FF11D2F
:1003C000858D90E008958FEF9FEF0895FC01918D4A
:1003D000228D892F90E0805C9F4F821B91098F7343
:1003E000992708958AE595E0F1DF21E0892B09F44A
:1003F00020E0822F0895FC01A48DA80FB92FB11D14
:10040000A35ABF4F2C91848D90E001968F7399274A
:10041000848FA689B7892C93A089B1898C91837028
:1004200080648C93938D848D981306C00288F38921
:10043000E02D80818F7D80830895EF92FF920F934E
:100440001F93CF93DF93EC0181E0888F9B8D8C8D80
:1004500098131AC0E889F989808185FF15C09FB774
:10046000F894EE89FF896083E889F9898081837037
:10047000806480839FBF81E090E0DF91CF911F91E6
:100480000F91FF90EF900895F62E0B8D10E00F5F07
:100490001F4F0F731127E02E8C8D8E110BC00FB6DE
:1004A00007FCFACFE889F989808185FFF5CFCE0175
:1004B000A2DFF2CFEB8DEC0FFD2FF11DE35AFF4FC2
:1004C000F0829FB7F8940B8FEA89FB898081806264
:1004D000D0CFCF93DF93EC01888D8823B1F0AA8928
:1004E000BB89E889F9898C9185FD03C0808186FDEF
:1004F0000CC00FB607FCF7CF8C9185FFF2CF80813F
:1005000085FFEDCFCE0177DFEACFDF91CF91089560
:1005100080E090E0892B21F065DF81110E940000CE
:1005200080E090E0892B49F080E090E0892B29F071
:100530000E94000081110E94000080E090E0892B61
:1005400049F080E090E0892B29F00E9400008111A1
:100550000E94000080E090E0892B49F080E090E06C
:10056000892B29F00E94000081110C94000008954D
:100570008150823108F05AC0E82FF0E08827EC5310
:10058000FD4F8F4F0C947112E402E802D602DC0298
:10059000E0021603EB02F102F502FB02FF02030385
:1005A00009030D031603110317031B038091800039
:1005B0008F77809380000895809180008F7DF9CFA0
:1005C00080918000877FF5CF84B58F7784BD0895B3
:1005D00084B58F7DFBCF8091B0008F778093B00082
:1005E00008958091B0008F7DF9CF809190008F7732
:1005F000809390000895809190008F7DF9CF809135
:100600009000877FF5CF8091A0008F778093A00026
:1006100008958091A0008F7DF9CF8091A000877F01
:10062000F5CF809120018F778093200108958091EC
:1006300020018F7DF9CF80912001877FF5CF1F9317
:10064000CF93DF93282F30E0F901E85EFE4F8491CD
:10065000F901E25AFE4FD491F901E254FE4FC491E0
:10066000CC23A1F0162F811183DFEC2FF0E0EE0FE9
:10067000FF1FEC55FE4FA591B4918FB7F894EC9104
:10068000111108C0D095DE23DC938FBFDF91CF918D
:100690001F910895DE2BF8CF9091020289130DC0AF
:1006A000E4E0F2E0E4919FEF90930202E230D9F0AF
:1006B00030F4EE2379F0E13081F060E0C0CFE43037
:1006C00049F110F1E530C9F7909173009D7F909347
:1006D0007300F3CF10926E00F0CF90916F009D7F6A
:1006E00090936F00EACF909170009D7F909370007F
:1006F00091E09093B0009091B100987F94609093B6
:10070000B1001092B300D9CF909171009D7F90936A
:100710007100D3CF909172009D7F90937200CDCFE6
:10072000CF93DF9390E0FC01E25AFE4F2491825474
:100730009E4FFC0184918823D1F090E0880F991F8F
:10074000FC01EC51FF4FA591B491FC01EC55FE4F1B
:10075000C591D49161110EC09FB7F8948C91E22F8E
:10076000E0958E238C932881E223E8839FBFDF915D
:10077000CF9108958FB7F894EC91E22BEC938FBF53
:10078000F6CF8F929F92AF92BF92CF92DF92EF926D
:10079000FF92CF936B0190910202891769F09F3FFE
:1007A00009F475C0CF91FF90EF90DF90CF90BF908C
:1007B000AF909F908F900895E4E0F2E0C491C7FD60
:1007C000F1CF61E0ADDFCC2319F0C23009F0DDC11B
:1007D000F12CE12C60E072E18AE790E0A70196013C
:1007E0000E94031149015A01BA01A901415051095E
:1007F000610971094F3F51056105710509F00CF45C
:10080000A9C160E472E48FE090E0A70196010E9424
:100810000311BA01A9014150510961097109C2309E
:1008200009F01EC182E04F3F51056105710509F0D5
:100830000CF45BC160E970ED83E090E0A7019601E4
:100840000E940311BA01A9014150510961097109BE
:1008500083E04F3F51056105710509F00CF445C176
:1008600068E478EE81E090E0A70196010E94031110
:10087000BA01A90141505109610971094F3F510560
:100880006105710511F00CF041C184E02EC1809327
:100890000202E4E0F2E0C4919C2FCF3F09F482CF42
:1008A000C23009F472C050F4CC2389F1C13009F48C
:1008B0004AC097FD77CF61E033DF87CFC43009F4BA
:1008C000ADC008F488C0C530A1F710922001109285
:1008D0002101909121019860909321019091210133
:1008E000916090932101282F30E0F901E254FE4FEE
:1008F000E491F0E0EE0FFF1FEC55FE4F459154914F
:10090000F901E25AFE4FE491E0933A055ACF14BC44
:1009100015BC94B5926094BD95B5916095BD282F96
:1009200030E0F901E254FE4FE491F0E0EE0FFF1FDA
:10093000EC55FE4F45915491F901E25AFE4FE49176
:10094000E09341053ECF109280001092810090917B
:1009500081009860909381009091810091609093C4
:100960008100282F30E0F901E254FE4FE491F0E0DD
:10097000EE0FFF1FEC55FE4F45915491F901E25ADD
:10098000FE4FE491E09340051CCF1092B00010920E
:10099000B1009091B00092609093B0009091B1003E
:1009A00091609093B100282F30E0F901E254FE4F9E
:1009B000E491F0E0EE0FFF1FEC55FE4F459154918E
:1009C00050933F0540933E05F901E25AFE4FE491F2
:1009D000E0933D05F6CE1092900010929100909118
:1009E0009100986090939100909191009160909304
:1009F0009100282F30E0F901E254FE4FE491F0E03D
:100A0000EE0FFF1FEC55FE4F45915491F901E25A4C
:100A1000FE4FE491E0933C05C3E0D3CE1092A000DA
:100A20001092A1009091A10098609093A1009091E4
:100A3000A10091609093A100282F30E0F901E254C9
:100A4000FE4FE491F0E0EE0FFF1FEC55FE4F459195
:100A50005491F901E25AFE4FE491E0933B05B1CE87
:100A60004F3F51056105710509F00CF48CC068E435
:100A700078EE81E090E0A70196010E940311BA018F
:100A8000A9014150510961097109CC2309F449C1F7
:100A90004F3F51056105710509F00CF4F6CE62E196
:100AA0007AE780E090E0A70196010E940311BA0165
:100AB000A9014150510961097109CC2309F41AC1F6
:100AC00086E04F3F51056105710579F070F0B50181
:100AD000A4019AE075956795579547959A95D1F732
:100AE000415051096109710987E09091B100987FE7
:100AF000892B8093B100C23009F4E9C00CF0E0C04A
:100B0000CC2379F1C13009F04DCE6DC064E274EFB1
:100B100080E090E0A70196010E940311BA01A901AB
:100B2000415051096109710985E04F3F5105610547
:100B30007105D9F2D0F262E17AE780E090E0A70196
:100B400096010E940311BA01A9014150510961099E
:100B50007109B6CF81E0C111C8CF95B5987F892BB7
:100B600085BD47BD8FEF9FEFDC01809356059093C5
:100B70005705A0935805B093590580916E00826087
:100B800080936E000FCE82E0E6CFF12CE12C60E086
:100B900072E18AE790E0A70196010E940311BA0171
:100BA000A901415051096109710991E041155105AF
:100BB00081E0680771057CF068E478EE81E090E000
:100BC000A70196010E940311BA01A90141505109E0
:100BD0006109710993E0C130D9F480918100887F67
:100BE000892B8093810050938900409388008FEF78
:100BF0009FEFDC018093520590935305A093540519
:100C0000B093550580916F00826080936F00CACDCC
:100C1000C330D9F480919100887F892B8093910013
:100C200050939900409398008FEF9FEFDC018093E1
:100C30004A0590934B05A0934C05B0934D058091C8
:100C40007100826080937100ADCDC430D9F4809181
:100C5000A100887F892B8093A1005093A900409325
:100C6000A8008FEF9FEFDC01809346059093470526
:100C7000A0934805B09349058091720082608093EB
:100C8000720090CDC53009F036CF80912101887F68
:100C9000892B8093210150932901409328018FEFE4
:100CA0009FEFDC018093420590934305A093440598
:100CB000B09345058091730082608093730072CD7C
:100CC000C43059F20CF4ACCFC53029F36BCD40934E
:100CD000B3008FEF9FEFDC0180934E0590934F059B
:100CE000A0935005B093510580917000826080936D
:100CF000700058CD84E04F3F51056105710509F042
:100D000008F42BCFB501A4018AE075956795579536
:100D100047958A95D1F7415051096109710985E0DC
:100D20001CCF83E04F3F51056105710509F00CF4BC
:100D300014CFB5CE863308F0865320917B00982FD0
:100D40009870277F922B90937B00877080648093AC
:100D50007C0080917A00806480937A0080917A0090
:100D600086FDFCCF809178009091790008953FB77F
:100D7000F8948091610490916204A0916304B09111
:100D8000640426B5A89B05C02F3F19F00196A11D4C
:100D9000B11D3FBFBA2FA92F982F8827BC01CD01C5
:100DA000620F711D811D911D42E0660F771F881F24
:100DB000991F4A95D1F708958F929F92AF92BF9253
:100DC000CF92DF92EF92FF926B017C01D0DF4B015B
:100DD0005C01C114D104E104F104B1F0C8DF681969
:100DE00079098A099B09683E73408105910588F35A
:100DF00021E0C21AD108E108F10888EE880E83E0EC
:100E0000981EA11CB11CE5CFFF90EF90DF90CF9012
:100E1000BF90AF909F908F900895CF93DF93D62F80
:100E2000C42F682F8AE595E008DB6D2F8AE595E0F1
:100E300004DB6C2F8AE595E0DF91CF91FECA44E098
:100E400050E065E372E08AE595E062CACF93DF93F4
:100E5000EC0188819981009711F00E942F1319826B
:100E600018821D821C821B821A82DF91CF91089505
:100E7000FC0180819181009711F00C942F1308954B
:100E80000F931F93CF93DF93EC0188819981009793
:100E900059F02A813B812617370730F081E0DF9136
:100EA000CF911F910F9108958B016F5F7F4F0E942B
:100EB000B813009759F0998388831B830A832C8188
:100EC0003D81232B59F7FC011082E8CF80E0E7CF6A
:100ED000EF92FF920F931F93CF93DF9361157105EC
:100EE00041F480E0DF91CF911F910F91FF90EF903F
:100EF000089541155105A9F07B01EC010C811D817C
:100F0000040F151FB801BCDF882359F328813981EC
:100F10008C819D81B701820F931F0E94A5141D83B0
:100F20000C8381E0DFCFEF92FF920F931F93CF935B
:100F3000DF93EC017B018A01BA01A2DF81110AC0B3
:100F4000CE0184DFCE01DF91CF911F910F91FF90F1
:100F5000EF9008951D830C83B701888199810E94C9
:100F6000A514F0CFFB0101900020E9F73197AF0104
:100F7000461B570BD8CFCF93DF93EC01FB018617AD
:100F8000970741F0608171816115710539F04481E5
:100F90005581C9DFCE01DF91CF91089557DFFACF98
:100FA000FC01118210821382128215821482E3CF17
:100FB000FC01118210821382128215821482FB01BD
:100FC00001900020E9F73197AF01461B570BABCFDB
:100FD0004F925F926F927F928F929F92AF92BF9249
:100FE000CF92DF92EF92FF924C016B018FB7F89492
:100FF00040905D0450905E0460905F0470906004C7
:101000008FBF85E097DE01969C01990F440B550B2D
:10101000C301B2010E942F1121153105410551056F
:1010200019F0CA01B901C2D78FEFC81AD80A0D2C1E
:10103000000CEE08FF08092C000CAA08BB088C1451
:101040009D04AE04BF0484F4C818D908EA08FB085C
:1010500039F060D7A70196010E9403116B017C0152
:101060008C0C9D1CAE1CBF1CC401FF90EF90DF9048
:10107000CF90BF90AF909F908F907F906F905F9038
:101080004F9008951F920F920FB60F9211240BB636
:101090000F922F933F934F935F936F937F938F9311
:1010A0009F93AF93BF93EF93FF9380914E059091E1
:1010B0004F05A0915005B0915105892B8A2B8B2BA0
:1010C000E1F190913D05E0913E05F0913F05808171
:1010D0008927808380914E0590914F05A0915005FE
:1010E000B0915105181619061A061B069CF480913A
:1010F0004E0590914F05A0915005B0915105019773
:10110000A109B10980934E0590934F05A093500516
:10111000B0935105FF91EF91BF91AF919F918F9146
:101120007F916F915F914F913F912F910F900BBEE7
:101130000F900FBE0F901F90189580910202ACDAAD
:10114000E9CF1F920F920FB60F9211240BB60F9298
:101150002F933F934F935F936F937F938F939F93BF
:10116000AF93BF93EF93FF938AE595E044D9FF9146
:10117000EF91BF91AF919F918F917F916F915F910F
:101180004F913F912F910F900BBE0F900FBE0F907C
:101190001F9018951F920F920FB60F9211240BB645
:1011A0000F922F938F939F93EF93FF93E0916A0594
:1011B000F0916B058081E0917005F091710582FDE1
:1011C0001DC09081809173058F5F8F73209174058E
:1011D000821741F0E0917305F0E0E65AFA4F958FDF
:1011E00080937305FF91EF919F918F912F910F90B5
:1011F0000BBE0F900FBE0F901F9018958081F2CFFD
:101200001F920F920FB60F9211242F933F938F933B
:101210009F93AF93BF9380915D0490915E04A091E2
:101220005F04B091600430915C0423E0230F2D37FC
:1012300058F50196A11DB11D20935C0480935D04B7
:1012400090935E04A0935F04B09360048091610466
:1012500090916204A0916304B09164040196A11D71
:10126000B11D8093610490936204A0936304B093D2
:101270006404BF91AF919F918F913F912F910F90F7
:101280000FBE0F901F90189526E8230F0296A11D00
:10129000B11DD2CFEAE5F5E01382128288EE93E029
:1012A000A0E0B0E084839583A683B78387E292E0D1
:1012B0009183808385EC90E09587848784EC90E02F
:1012C0009787868780EC90E0918B808B81EC90E013
:1012D000938B828B82EC90E0958B848B86EC90E0F4
:1012E000978B868B118E128E138E148E60E073E0B6
:1012F00087E097E05DDE80EF90E0909306078093B3
:1013000005076AE472E089E696E052DE64EA72E07C
:101310008FE696E04DDE6AE372E085E796E048DE10
:1013200063E872E08BE796E043DE65EB72E081E80C
:1013300096E03EDE6BEA72E087E896E039DE63EB2A
:1013400072E08DE896E034DE6CE772E083E996E0C7
:101350002FDE64E872E089E996E02ADE64E672E056
:101360008FE996E025DE6FE372E085EA96E020DE05
:1013700063E472E08BEA96E01BDE6AE572E081EBE3
:1013800096E016DE64EB72E087EB96E011DE69E52D
:1013900072E08DEB96E00CDE6DE972E083EC96E096
:1013A00007DE68E472E089EC96E002DE6BE372E04F
:1013B0008FEC96E0FDDD65EA72E085ED96E0F8DD04
:1013C0006BE572E08BED96E0F3DD6EE472E081EEAA
:1013D00096E0EEDD68EB72E087EE96E0E9DD63E52E
:1013E00072E08DEE96E0E4DD6DE472E083EF96E06E
:1013F000DFDD62E572E089EF96E0DADD62E872E057
:101400008FEF96E0D5DD67E572E08DE296E0D0DD06
:101410006DE572E083E396E0CBDD63E672E089E39D
:1014200096E0C6DD69E672E08FE396E0C1DD6FE627
:1014300072E085E496E0BCDD65E772E08BE496E05F
:10144000B7DD6BE772E081E596E0B2DD63EA72E05A
:1014500087E596E0ADDD61E872E08DE596E0A8DD18
:1014600061EB72E083E696E0A3DD67E872E08DEF62
:1014700095E09EDD6EE872E083E096E099DD65E937
:1014800072E089E096E094DD6CE972E08FE096E02E
:101490008FDD62EA72E085E196E08ADD69EA72E05A
:1014A0008BE196E085DD60EB72E081E296E080DD25
:1014B00067EB72E087E296E07BDD60E073E087EF48
:1014C00095E076CDCF93DF93CDB7DEB7E2970FB639
:1014D000F894DEBF0FBECDBF789484B5826084BD22
:1014E00084B5816084BD85B5826085BD85B5816028
:1014F00085BD80916E00816080936E0010928100A6
:101500008091810082608093810080918100816060
:101510008093810080918000816080938000809121
:10152000B10084608093B1008091B00081608093AD
:10153000B000809191008260809391008091910031
:1015400081608093910080919000816080939000F1
:101550008091A10082608093A1008091A1008160B0
:101560008093A1008091A00081608093A000809171
:10157000210182608093210180912101816080930B
:1015800021018091200181608093200180917A0067
:10159000846080937A0080917A00826080937A00E0
:1015A00080917A00816080937A0080917A008068CF
:1015B00080937A001092C10080910002882309F480
:1015C000C8C060E875E280E090E00E94370112E058
:1015D00060E0812FA5D861E0812F31D81F5F1F30D7
:1015E000B9F761E08DE09CD86DEB72E087EF95E094
:1015F000B9DCAAE0AA2EB12C6DE0862E62E0962E10
:1016000079EEE72E74E0F72EECE22E2EE5E03E2E8A
:1016100010E000E0FAE07F2ED401CD90DD904D0186
:101620008C2D88DB2FE730E0DC0163D72FEF33E030
:1016300040E050E0E8D5F701819191917F01F601FA
:10164000EE0FFF1FE352FB4FC080D180709ED00190
:10165000719EB00D1124AC0DBD1DAA0FBB1FAB595F
:10166000BB4F6D917C911197861B970B2D933C93EB
:10167000820F931FD70112978D939C93B5011ED7AC
:10168000D1016D937D931D01BFEFCB1ADB0A2AE0D8
:10169000C216D1040CF062C0D182C0820F5F1F4F0E
:1016A0000630110509F0B8CF61E070E080E090E00D
:1016B00083DB40E450E050932D0540932C0580E6F9
:1016C00090E090933105809330051092330510928D
:1016D000320580910102882309F428C260913805FF
:1016E000709139058091FB059091FC056817790789
:1016F00008F071C387EF95E00E9477011C8A1B8A6E
:101700001E8A1D8A188E1F8A89831A82BE016F5F06
:101710007F4FCE01439626DC60E073E0CE01019658
:1017200047DC8F89988D892B09F48CC00B891C8923
:1017300001151105B1F0D8018D918D01882389F033
:10174000082E000C990B0E949414F80131978083A5
:10175000F2CF62E17AE780E090E037CF1182108229
:101760009DCF70E060E0CE0143960E9477018C32FD
:1017700009F4E9C05CF4823209F4EBC0873209F461
:10178000EBC0813269F46FE076E059C08A3309F426
:10179000DDC00CF04CC06DEF75E08E3209F44FC027
:1017A0009FE9980F9A3180F4082E000C990B81560E
:1017B000910926E0289FB001299F700D11246759D7
:1017C000794FCE010196D7DB70E060E0CE01439601
:1017D0000E94770180538A30E0F48F89988D892B9D
:1017E00021F0EB89FC89309721F41092F504E5EFA4
:1017F000F4E08081082E000C990BC09726E0289F0A
:10180000B001299F700D1124635D794FCE010196BF
:10181000B2DB70E060E0CE0143960E947701803237
:1018200089F46AEF72E0CE0101969CDB0BC08D3328
:1018300009F495C069E076E08F3309F0B1CFCE01AD
:10184000019699DB8091070790910807009709F4AA
:101850008AC069817A816115710509F483C040915C
:10186000090750910A072D813E814217530708F45A
:1018700079C00E94A5148D819E8190930C0780935E
:101880000B071E821D82CE010196F2DACE0143962D
:10189000EFDAA0912E05B0912F052BE030E029D68C
:1018A0002FE730E040E050E0AED430932B0520939A
:1018B0002A0562E070E081E090E08ADB82309105E9
:1018C00009F468C0909329058093280560912A0542
:1018D00070912B0590E080E07BDB8C018091000211
:1018E000882309F4CBC167E077E0CE01019658DB8D
:1018F00010E000E08D819E810817190708F06BC089
:10190000B801CE0101960E9477018E3209F049C0DC
:1019100061E08DE00E941F0368E770E089E00E94AB
:10192000C10360E570E080E090E046DA60E08DE0C1
:101930000E941F0389E00E944C0360E570E080E094
:1019400090E03ADA45C063E076E079CF65E176E091
:1019500076CF6BE176E073CF61E276E070CF67E23D
:1019600076E06DCF7CD689819A8190930807809329
:1019700007078B819C8190930A07809309078D81CB
:101980009E8190930C0780930B071A8219821C8208
:101990001B8277CFEFEFFFEFF0932905E093280547
:1019A00095CF8D3291F461E08DE00E941F0360EFCE
:1019B00070E089E00E94C1036091050770910607FD
:1019C000072E000C880B990BB0CF803209F4B5CFED
:1019D0000F5F1F4F8FCF60EA70E080E090E0ECD99E
:1019E000CE01019645DA609138057091390587EF8F
:1019F00095E00E947701682F8AE595E00E941D021C
:101A00001EDA6CEF72E0CE014F96D2DA60913805A3
:101A10007091390587EF95E00E9477011EA21DA203
:101A200018A61FA21AA619A64AE0BE016F5F7F4F33
:101A3000082E000C990BC3D2BE016F5F7F4FCE0101
:101A4000859690DA60E073E0CE014396B1DA09A59D
:101A50001AA5BE0103301105ECF46D5E7F4FCE0177
:101A600001969EDA4BA15CA16F8D78A1CE01019603
:101A70002FDA811103C0CE010196E8D9BE016F5F54
:101A80007F4FCE01439677DACE010196F1D90F5FF1
:101A90001F4FDFCF6B5D7F4FCE01019681DA4F89FB
:101AA000588D6B897C89CE01019612DA811103C0B1
:101AB000CE010196CBD9BE016F5F7F4FCE01499613
:101AC0006FDACE010196D4D9CE014396D1D94D8D8E
:101AD0005E8D698D7A8D8AE595E00E948801CE0140
:101AE0004996C6D9CE018596C3D9CE014F96C0D9A5
:101AF000A6D940910B0750910C0760910707709190
:101B000008078AE595E00E94880142E050E06EEF08
:101B100072E08AE595E00E948801809138059091F5
:101B20003905019690933905809338052EE0E22E11
:101B300025E0F22E10E000E0F801E65EFE4F849111
:101B4000F801E05AFE4FC490F801E054FE4FD490E3
:101B5000DD2009F468C181110E94B802ED2DF0E08A
:101B6000EE0FFF1FE250FF4FA591B491EC91CE22F2
:101B700031E020E009F430E0832F922FD7018D93DC
:101B80009D937D010F5F1F4F0C301105A9F6009149
:101B90001405109115058091FC049091FD0408171F
:101BA000190791F00115110579F48091000291E077
:101BB000892780930002882309F438C160E875E220
:101BC00080E090E00E943701E0900E05F0900F0554
:101BD0008091F6049091F704E816F90661F1E1149A
:101BE000F10449F58091010291E089278093010277
:101BF00061E0811111C082E3C82ED12C50E040E099
:101C0000B60180E890E009D9BFEFCB1ADB0AE9E51D
:101C1000CE16D10499F760E08AE00E941F0360E0CD
:101C20008BE00E941F0360E08CE00E941F0360E0D5
:101C300070E0CB01C1D8F092F704E092F6048091F5
:101C40001005909111059093F9048093F804809108
:101C50001205909113059093FB048093FA0410935E
:101C6000FD040093FC048091160590911705909354
:101C7000FF048093FE040E948802BECCE0902805F9
:101C8000F090290567E077E0CE01019689D9CD80F3
:101C9000DE80A0913205B091330596012AD42FE75A
:101CA00030E040E050E0AFD2CA01B901BDD12B0114
:101CB0003C01B60190E080E0B5D19B01AC01C301CD
:101CC000B20163D32B013C01E09EC001E19E900D67
:101CD000F09E900D11248F5B9F4F10E000E0970164
:101CE000FF0C440B550B2BA73CA74DA75EA79C01EF
:101CF000990F440B550B2FA738AB49AB5AAB8D81CD
:101D00009E810817190708F05CC0B801012E000C6D
:101D1000880B990B89D1A3019201C1D16B017C0180
:101D20006BA57CA58DA59EA57FD19B01AC01C701AC
:101D3000B601B5D16B017C016FA578A989A99AA9D3
:101D400073D19B01AC01C701B601BBD286D36B0135
:101D5000B801CE0101960E9477018D3201F18E32D9
:101D600051F0803229F460E570E080E090E024D802
:101D70000F5F1F4FC4CF8090300590903105A401B4
:101D8000B60181E990E049D860E570E080E090E03C
:101D900013D8A401B60180E890E03FD8E4CF80904A
:101DA000300590903105A401B60181E990E035D865
:101DB0006091050770910607072E000C880B990BA0
:101DC000E7CF60EA70E080E090E00E94DC06CE01A0
:101DD00001964ED8A2CE1092390510923805809106
:101DE00026059091270584309105A9F410922705C6
:101DF00010922605E0912605F0912705EE0FFF1FB2
:101E0000E75EFD4F6081718187EF95E06115710597
:101E100041F0A8D88BCE0196909327058093260594
:101E2000E9CF14D883CE90E080E0A8CE62E17AE7D3
:101E300080E090E0C7CECF93DF9387EF95E018D88E
:101E4000CDE2D6E02697CE0113D885E0CD3FD80766
:101E5000C9F7C9E6D6E02697CE010AD886E0CD328A
:101E6000D807C9F7C5E0D7E02697CE0101D886E0AC
:101E7000C936D807C9F787E097E0DF91CF910C9476
:101E800038078F929F92AF92BF92CF92DF92EF92DC
:101E9000FF92CF93DF93EC01688179818A819B81E6
:101EA000611571058105910521F464E279ED8BE5F9
:101EB00097E02DE133EF41E050E0A5D149015A010F
:101EC0009B01AC01A7EAB1E4BAD16B017C01ACEE95
:101ED000B4EFA5019401BFD1C60ED71EE81EF91EAE
:101EE000F7FE06C081E0C81AD108E10880E8F80AC8
:101EF000C882D982EA82FB82C701B6019F77DF914F
:101F0000CF91FF90EF90DF90CF90BF90AF909F90D8
:101F10008F9008958F929F92AF92BF92CF92DF924F
:101F2000EF92FF926091030270910402809105028A
:101F300090910602611571058105910521F464E215
:101F400079ED8BE597E02DE133EF41E050E05BD197
:101F500049015A019B01AC01A7EAB1E470D16B01C0
:101F60007C01ACEEB4EFA501940175D1C60ED71E6D
:101F7000E81EF91EF7FE06C081E0C81AD108E10884
:101F800080E8F80AC0920302D0920402E0920502AF
:101F9000F0920602C701B6019F77FF90EF90DF90A5
:101FA000CF90BF90AF909F908F9008956093030261
:101FB0007093040280930502909306020895BB2754
:101FC0004A3031F4992322F4BDE2909581959F4FD8
:101FD00001C0BB27FB015527AA27880F991FAA1FFD
:101FE000A41710F0A41B83955051B9F7A05DAA3334
:101FF00008F0A95DA193009779F7B111B1931192FF
:10200000CB0100C0DC01FC01672F71917723E1F760
:10201000329704C07C916D9370836291AE17BF07B5
:10202000C8F30895E89409C097FB3EF49095809515
:10203000709561957F4F8F4F9F4F9923A9F0F92F8E
:1020400096E9BB279395F695879577956795B7950C
:10205000F111F8CFFAF4BB0F11F460FF1BC06F5FF2
:102060007F4F8F4F9F4F16C0882311F096E911C004
:10207000772321F09EE8872F762F05C0662371F025
:1020800096E8862F70E060E02AF09A95660F771F39
:10209000881FDAF7880F9695879597F908950BD0E2
:1020A00078C069D028F06ED018F0952309F05AC096
:1020B0005FC01124A2C07ED0A0F3959FD1F3950FED
:1020C00050E0551F629FF001729FBB27F00DB11DBC
:1020D000639FAA27F00DB11DAA1F649F6627B00D4C
:1020E000A11D661F829F2227B00DA11D621F739F35
:1020F000B00DA11D621F839FA00D611D221F749F43
:102100003327A00D611D231F849F600D211D822F89
:10211000762F6A2F11249F5750408AF0E1F08823D0
:102120004AF0EE0FFF1FBB1F661F771F881F9150DD
:102130005040A9F79E3F510570F014C05EC05F3F4C
:10214000ECF3983EDCF3869577956795B795F79510
:10215000E7959F5FC1F7FE2B880F911D9695879598
:1021600097F9089597F99F6780E870E060E0089517
:102170009FEF80EC089500240A941616170618069F
:102180000906089500240A9412161306140605067B
:102190000895092E0394000C11F4882352F0BB0F0C
:1021A00040F4BF2B11F460FF04C06F5F7F4F8F4F6F
:1021B0009F4F089557FD9058440F551F59F05F3FAA
:1021C00071F04795880F97FB991F61F09F3F79F059
:1021D00087950895121613061406551FF2CF4695DB
:1021E000F1DF08C0161617061806991FF1CF86955D
:1021F0007105610508940895E894BB276627772741
:10220000CB0197F90895052E97FB16F400940FD093
:1022100057FD05D024D007FC02D046F408C05095E5
:102220004095309521953F4F4F4F5F4F08959095C2
:102230008095709561957F4F8F4F9F4F089531D056
:10224000A59F900DB49F900DA49F800D911D11240A
:102250000895B7FFF4CFF3DF821B930B0895A1E23B
:102260001A2EAA1BBB1BFD010DC0AA1FBB1FEE1F10
:10227000FF1FA217B307E407F50720F0A21BB30B5B
:10228000E40BF50B661F771F881F991F1A9469F7D7
:1022900060957095809590959B01AC01BD01CF0133
:1022A0000895A29FB001B39FC001A39F700D811D2F
:1022B0001124911DB29F700D811D1124911D08954F
:1022C0005058BB27AA270ED064CF55DF30F05ADF15
:1022D00020F031F49F3F11F41EF44ACF0EF4E09544
:1022E000E7FB40CFE92F66DF80F3BA176207730779
:1022F0008407950718F071F49EF57ECF0EF4E095F3
:102300000B2EBA2FA02D0B01B90190010C01CA01AF
:10231000A0011124FF27591B99F0593F50F4503E5A
:1023200068F11A16F040A22F232F342F4427585F4C
:10233000F3CF469537952795A795F0405395C9F764
:102340007EF41F16BA0B620B730B840BBAF091501C
:10235000A1F0FF0FBB1F661F771F881FC2F70EC0BB
:10236000BA0F621F731F841F48F48795779567958E
:10237000B795F7959E3F08F0B3CF9395880F08F077
:102380009927EE0F9795879508950CD002CFFADE26
:1023900040F0F1DE30F021F45F3F19F0E3CE51114F
:1023A0002CCFE6CE07DF98F39923C9F35523B1F379
:1023B000951B550BBB27AA2762177307840738F0B4
:1023C0009F5F5F4F220F331F441FAA1FA9F333D013
:1023D0000E2E3AF0E0E830D091505040E695001CC7
:1023E000CAF729D0FE2F27D0660F771F881FBB1F83
:1023F000261737074807AB07B0E809F0BB0B802D5D
:10240000BF01FF2793585F4F2AF09E3F510568F0A8
:10241000A9CEF3CE5F3FECF3983EDCF3869577953B
:102420006795B795F7959F5FC9F7880F911D9695AA
:10243000879597F90895E1E0660F771F881FBB1F06
:10244000621773078407BA0720F0621B730B840BB3
:10245000BA0BEE1F88F7E095089504D06894B11187
:10246000CCCE0895AFDE88F09F5790F0B92F992712
:10247000B751A0F0D1F0660F771F881F991F1AF08F
:10248000BA95C9F712C0B13081F0B6DEB1E0089557
:10249000B3CE672F782F8827B85F39F0B93FCCF3D8
:1024A000869577956795B395D9F73EF49095809585
:1024B000709561957F4F8F4F9F4F089597FB072E23
:1024C00016F4009406D077FD08D019D007FC05D08B
:1024D0003EF4909581959F4F0895709561957F4F3B
:1024E0000895EE0FFF1F881F8BBF0790F691E02D18
:1024F0001994D7DEB7FF0895821B930B0895AA1B8A
:10250000BB1B51E107C0AA1FBB1FA617B70710F0DE
:10251000A61BB70B881F991F5A95A9F78095909510
:10252000BC01CD0108950F931F93CF93DF938230A9
:10253000910510F482E090E0E0910F07F091100710
:1025400030E020E0B0E0A0E0309799F421153105AB
:1025500009F44AC0281B390B24303105D8F58A818B
:102560009B816115710589F1FB0193838283FE01D3
:1025700011C0408151810281138148175907E0F051
:102580004817590799F4109761F012960C93129717
:1025900013961C933296CF01DF91CF911F910F912B
:1025A000089500930F0710931007F4CF21153105FC
:1025B00051F04217530738F0A901DB019A01BD0120
:1025C000DF01F801C1CFEF01F9CF9093100780939D
:1025D0000F07CDCFFE01E20FF31F8193919322509D
:1025E000310939832883D7CF20910D0730910E0709
:1025F000232B41F42091090230910A0230930E07F7
:1026000020930D0720910702309108022115310512
:1026100041F42DB73EB740910B0250910C02241BA0
:10262000350BE0910D07F0910E07E217F307A0F4C8
:102630002E1B3F0B2817390778F0AC014E5F5F4F18
:102640002417350748F04E0F5F1F50930E07409335
:102650000D07819391939FCFF0E0E0E09CCFCF9363
:10266000DF930097E9F0FC01329713821282A09168
:102670000F07B0911007ED0130E020E01097A1F4B2
:1026800020813181820F931F20910D0730910E0719
:102690002817390709F061C0F0930E07E0930D0782
:1026A000DF91CF910895EA01CE17DF07E8F54A815F
:1026B0005B819E0141155105B1F7E901FB83EA8376
:1026C00049915991C40FD51FEC17FD0761F4808122
:1026D00091810296840F951FE901998388838281F5
:1026E00093819B838A83F0E0E0E012968D919C9128
:1026F00013970097B9F52D913C911197CD01029652
:10270000820F931F20910D0730910E07281739076C
:1027100039F6309751F51092100710920F07B093C9
:102720000E07A0930D07BCCFD383C2834081518194
:10273000840F951FC817D90761F44E5F5F4F8881DA
:102740009981480F591F518340838A819B819383CC
:1027500082832115310509F0B0CFF0931007E09383
:102760000F079ECFFD01DC01C0CF13821282D7CFAD
:102770004F925F926F927F928F929F92AF92BF9291
:10278000CF92DF92EF92FF920F931F93CF93DF933D
:102790008C01009791F4CB01DF91CF911F910F91A4
:1027A000FF90EF90DF90CF90BF90AF909F908F9071
:1027B0007F906F905F904F90B6CEFC01E60FF71FB1
:1027C0009C0122503109E217F30708F4AAC0D9018D
:1027D000CD91DC911197C617D70718F1C530D105F7
:1027E00070F0CE0104978617970748F0C61BD70BE9
:1027F0002297C193D1936D937C93CF0130DFC801B1
:10280000DF91CF911F910F91FF90EF90DF90CF90CC
:10281000BF90AF909F908F907F906F905F904F9000
:1028200008955B01AC1ABD0A4C018C0E9D1EA0914F
:102830000F07B0911007512C412CF12CE12C10976F
:1028400031F580910D0790910E078815990509F0D3
:102850005CC04616570608F058C080910702909158
:102860000802009741F48DB79EB740910B0250913A
:102870000C02841B950BE817F90708F052C0F0937F
:102880000E07E0930D07F90171836083B8CF8D9136
:102890009C91119712966C90129713967C901397B7
:1028A000A815B90559F56C0142E0C40ED11CCA1433
:1028B000DB0420F1AC014A195B09DA011296159785
:1028C00080F06282738251834083D9016D937C933F
:1028D000E114F10471F0D7011396FC93EE93129773
:1028E0008ECF22968C0F9D1FF90191838083F30177
:1028F000EFCFF0931007E0930F0781CF48165906EA
:1029000008F42C017D01D3019ACFCB010CDE7C01B0
:10291000009739F0AE01B8010FD0C801A0DE8701E1
:102920006ECF10E000E06BCF9111089581548A5171
:1029300008F4805E855A0895FB01DC0102C0019015
:102940000D9241505040D8F70895FB01DC010190F1
:102950000D920020E1F7089511E0C4E0D1E000E01D
:1029600005C0802FFE01BDDD2196011DC530D107B8
:0A29700080E00807B1F7F894FFCFEC
:10297A000101FF01000000000011078000000001B2
:10298A00000200030004000500BD0201039403DFF6
:10299A0003F803000000001D028801B5016902E680
:1029AA0001C401D801207C7C20002D2E2D2E005F31
:1029BA002E5F002E2D2E2E002D2D2E2D002D2E2E8B
:1029CA002D002D2E2D2D002D2D2D2D2D002E2D2DB2
:1029DA002D2D002E2E2D2D2D002E2E2E2D2D002E9E
:1029EA002E2E2E2D002E2E2E2E2E002D2E2E2E2E5B
:1029FA00002D2D2D2E2E002E2D2E2D2E2D002D2D7F
:102A0A002E2E2D2D002E2E2D2D2E2E002E2E2D2D3E
:102A1A002E002D2D2D2E2E2E002E2D2E2E2D2E005B
:102A2A002E2D2D2D2D2E002D2E2E2E2D00436920DC
:102A3A00736172612720756E2067696F726E6F20ED
:102A4A00696E2063756920696C20636F72616767BC
:102A5A00696F206465676C6920756F6D696E69209E
:102A6A00636564657261272C2000202020000D0A0E
:102A7A0000696E2063756920616262616E646F6EBF
:102A8A006572656D6F20676C6920616D6963692085
:102A9A0065207370657A7A6572656D6F206F676EEF
:102AAA0069206C6567616D6520646920667261746E
:102ABA00656C6C616E7A61206D61206E6F6E206547
:102ACA002771756573746F20696C2067696F726E00
:102ADA006F2E4369207361726127206C276F7261C0
:102AEA0020646569206C7570692065206465676C6F
:102AFA0069207363756469206672616E74756D61AD
:102B0A00746920007175616E646F206C276572614B
:102B1A00206465676C6920756F6D696E69206172E2
:102B2A007269766572612720616C2063726F6C6CC2
:102B3A006F2C206D61206E6F6E2065272071756580
:102B4A0073746F20696C2067696F726E6F21005110
:102B5A0075657374276F67676920636F6D62617447
:102B6A007469616D6F2120005065722074757474E8
:102B7A006F2063696F272063686520726974656EC8
:102B8A00657465206361726F207375207175657352
:102B9A0074612062656C6C612074657272612C20AC
:102BAA00766920696E7669746F206120726573692F
:102BBA00737465726520556F6D696E692064656C02
:0C2BCA006C276F766573742121202000B9
:020000023000CC
:10E000000D9489F10D94B2F10D94B2F10D94B2F129
:10E010000D94B2F10D94B2F10D94B2F10D94B2F1F0
:10E020000D94B2F10D94B2F10D94B2F10D94B2F1E0
:10E030000D94B2F10D94B2F10D94B2F10D94B2F1D0
:10E040000D94B2F10D94B2F10D94B2F10D94B2F1C0
:10E050000D94B2F10D94B2F10D94B2F10D94B2F1B0
:10E060000D94B2F10D94B2F10D94B2F10D94B2F1A0
:10E070000D94B2F10D94B2F10D94B2F10D94B2F190
:10E080000D94B2F10D94B2F10D94B2F10D94B2F180
:10E090000D94B2F10D94B2F10D94B2F10D94B2F170
:10E0A0000D94B2F10D94B2F10D94B2F10D94B2F160
:10E0B0000D94B2F10D94B2F10D94B2F10D94B2F150
:10E0C0000D94B2F10D94B2F10D94B2F10D94B2F140
:10E0D0000D94B2F10D94B2F10D94B2F10D94B2F130
:10E0E0000D94B2F141546D656761323536300041AF
:10E0F000726475696E6F206578706C6F72657220DE
:10E1000073746B3530305632206279204D4C530099
:10E11000426F6F746C6F616465723E004875683F52
:10E1200000436F6D70696C6564206F6E203D200048
:10E130004350552054797065202020203D20005FF9
:10E140005F4156525F415243485F5F3D2000415658
:10E1500052204C696243205665723D20004743437C
:10E160002056657273696F6E203D20004350552024
:10E1700049442020202020203D20004C6F7720663D
:10E18000757365202020203D20004869676820665F
:10E190007573652020203D200045787420667573D6
:10E1A00065202020203D20004C6F636B2066757336
:10E1B000652020203D20004D617220203720323024
:10E1C000313300312E362E3800342E332E350056A2
:10E1D00023202020414444522020206F7020636F70
:10E1E00064652020202020696E73747275637469E1
:10E1F0006F6E2061646472202020496E74657272B3
:10E20000757074006E6F20766563746F7200726A49
:10E210006D702020006A6D70200057686174207056
:10E220006F72743A00506F7274206E6F7420737541
:10E2300070706F72746564004D7573742062652030
:10E2400061206C6574746572002000577269747483
:10E25000696E672045450052656164696E672045B7
:10E26000450045452065727220636E743D00504F35
:10E27000525400303D5A65726F2061646472003FF1
:10E280003D43505520737461747300403D454550C3
:10E29000524F4D207465737400423D426C696E6B41
:10E2A000204C454400453D44756D70204545505215
:10E2B0004F4D00463D44756D7020464C415348001B
:10E2C000483D48656C70004C3D4C69737420492F83
:10E2D0004F20506F72747300513D51756974005234
:10E2E0003D44756D702052414D00563D73686F7707
:10E2F00020696E7465727275707420566563746FF0
:10E30000727300593D506F727420626C696E6B00BD
:10E310002A0011241FBECFEFD1E2DEBFCDBF01E046
:10E320000CBF12E0A0E0B2E0EEE1FDEF03E00BBFB6
:10E3300002C007900D92A030B107D9F712E0A0E01B
:10E34000B2E001C01D92AE30B107E1F70F9460F367
:10E350000D948DFE01E20EBF0FEF0DBF11241FBE05
:10E360000D9460F30D9400F020E030E040ED57E0B4
:10E3700005C0FA013197F1F72F5F3F4F2817390792
:10E38000C0F308959C01260F311DC901A0E0B0E043
:10E390002F5F3F4FABBFFC018791882361F08093D3
:10E3A000C6008091C00086FFFCCF8091C0008064D1
:10E3B0008093C000EACF08958DE08093C6008091DD
:10E3C000C00086FFFCCF8091C00080648093C000B5
:10E3D0008AE08093C6008091C00086FFFCCF8091C8
:10E3E000C00080648093C00008950F94C2F10F9420
:10E3F000DCF10895FC019081992359F09093C600B7
:10E400008091C00086FFFCCF8091C0008064809323
:10E41000C0003196992379F70895282F982F929567
:10E420009F70892F805D8A3308F0895F8093C600D2
:10E430008091C00086FFFCCF8091C00080648093F3
:10E44000C000822F8F70982F905D9A3308F0995FEB
:10E450009093C6008091C00086FFFCCF8091C000E1
:10E4600080648093C00008959C01FB01853691056E
:10E470001CF46330710594F0C90164E670E00F94F8
:10E480002EFE605D7F4F6093C6008091C00086FFC6
:10E49000FCCF8091C00080648093C0002B30310598
:10E4A00014F43297B4F0C90164E670E00F942EFEC4
:10E4B0006AE070E00F942EFE605D7F4F6093C600AF
:10E4C0008091C00086FFFCCF8091C0008064809363
:10E4D000C000C9016AE070E00F942EFEC0968093E0
:10E4E000C6008091C00086FFFCCF8091C000806490
:10E4F0008093C00008951F93182F8EE692EE60E07F
:10E500000F94C2F11093C6008091C00086FFFCCF2B
:10E510008091C00080648093C0000F94DCF11F9153
:10E5200008952F923F924F925F926F927F928F92B7
:10E530009F92AF92BF92CF92DF92EF92FF920F9392
:10E540001F93DF93CF93CDB7DEB762970FB6F894E2
:10E55000DEBF0FBECDBF382E622ECA01DB015C01CB
:10E560006D01772420E2222E2E010894411C511CBB
:10E570008BC081E0A81680E0B80681E0C80680E084
:10E58000D80628F0C601AA27BB270F940DF2BB2797
:10E59000AD2D9C2D8B2D0F940DF28A2D0F940DF225
:10E5A0002092C6008091C00086FFFCCF8091C00001
:10E5B00080648093C0009DE29093C6008091C0006B
:10E5C00086FFFCCF8091C00080648093C0002092C1
:10E5D000C6008091C00086FFFCCF8091C00080649F
:10E5E0008093C00019828601750188249924A1E0D6
:10E5F0003A1651F03A1620F0B2E03B1661F409C029
:10E600000BBFF701779007C0C7010F9477FE782EF4
:10E6100002C0F7017080872D0F940DF22092C60082
:10E620008091C00086FFFCCF8091C0008064809301
:10E63000C000872D8052F401EF70F0708F3520F408
:10E64000E40DF51D708204C0E40DF51D8EE280839B
:10E650000894E11CF11C011D111D0894811C911CE2
:10E6600090E18916910409F0C2CF80E190E0A0E02A
:10E67000B0E0A80EB91ECA1EDB1E198AC2010F9493
:10E68000FAF10F94DCF16A94662009F072CF629679
:10E690000FB6F894DEBF0FBECDBFCF91DF911F91B3
:10E6A0000F91FF90EF90DF90CF90BF90AF909F9031
:10E6B0008F907F906F905F904F903F902F90089534
:10E6C0002F923F924F925F926F927F928F929F9282
:10E6D000AF92BF92CF92DF92EF92FF920F931F9370
:10E6E000DF93CF93CDB7DEB7CD53D1400FB6F894BB
:10E6F000DEBF0FBECDBF01E20EBF0FEF0DBF94B75F
:10E70000F894A89514BE80916000886180936000A1
:10E7100010926000789493FF05C0E0910002F091A0
:10E7200001021995279A2F9A8091C00082608093E8
:10E73000C00080E18093C40088E18093C1000000A4
:10E74000EE24FF24870144E0A42EB12CCC24DD2448
:10E7500024C0C5010197F1F70894E11CF11C011DCB
:10E76000111D21E2E2162EE4F20620E0020720E06D
:10E77000120718F031E0C32ED12CC801B70127ECE5
:10E780003BE140E050E00F9441FE611571058105C9
:10E79000910519F485B1805885B98091C00087FD35
:10E7A00003C0C114D104A9F2A6014F5F5F4FC25E3E
:10E7B000DE4F59834883CE51D140C25EDE4F8881FF
:10E7C0009981CE51D140019711F00D9410FEC05D9A
:10E7D000DE4F19821882C053D14060E0C15DDE4F28
:10E7E0001882CF52D14088249924C35DDE4F19820C
:10E7F0001882CD52D140C05EDE4F188219821A8233
:10E800001B82C052D140CE5CDE4F188219821A8220
:10E810001B82C253D140EE24FF2487010BBFF701B6
:10E8200007911691C45CDE4F19830883CC53D14005
:10E830000D940BFEC25EDE4F28813981CE51D1404E
:10E840002130310509F52091C600C25EDE4F1982E4
:10E850001882CE51D14022C02F5F3F4F4F4F5F4FA4
:10E86000213082E138078AE7480780E0580780F0C6
:10E87000C45CDE4FE881F981CC53D140EF5FFF4F9C
:10E8800019F0EE27FF27099420E030E040E050E047
:10E890008091C00087FFE0CF2091C600C35DDE4FAE
:10E8A00048815981CD52D1404F5F5F4FC35DDE4FEC
:10E8B00059834883CD52D140213209F063C64A3092
:10E8C000510508F05FC60894811C911C53E0851621
:10E8D000910409F059C600E010E018C081E280936D
:10E8E000C6008091C00086FFFCCF8091C00080648C
:10E8F0008093C0002F5F3F4F2931310579F70F9486
:10E90000DCF10F5F1F4F0530110519F020E030E0FA
:10E91000E5CF10920A0210920B0210920C02109294
:10E920000D02109206021092070210920802109235
:10E930000902109202021092030210920402109235
:10E9400005028FEE90EE60E00F94F5F180E191EE1C
:10E9500060E00F94C2F18091C00087FFFCCF9091DE
:10E96000C600903608F09F759032B8F09093C600BC
:10E970008091C00086FFFCCF8091C00080648093AE
:10E98000C000A0E2A093C6008091C00086FFFCCF2B
:10E990008091C00080648093C000983409F4D7C18E
:10E9A0009934B8F4923409F459C1933458F490333B
:10E9B00019F1903308F4E3C59F33A1F1903409F0C5
:10E9C000DEC5BDC0953409F470C1963409F0D7C5D1
:10E9D00098C1923509F42BC2933538F49C3409F46C
:10E9E000F5C1913509F0CBC518C2963509F445C279
:10E9F000993509F0C4C567C483E792EE62E00F94CD
:10EA0000F5F110920602109207021092080210927D
:10EA1000090210920A0210920B0210920C0210923C
:10EA20000D0213C18FE792EE62E00F94F5F18FEEC5
:10EA300090EE60E00F94F5F181E291EE60E00F94CA
:10EA4000C2F187EB91EE60E00F94F5F180E391EE77
:10EA500060E00F94C2F184EE90EE60E00F94F5F167
:10EA60008FE391EE60E00F94C2F186E090E061E008
:10EA700070E00F9434F20F94DCF18DE591EE60E0DC
:10EA80000F94C2F189EC91EE60E00F94F5F18EE401
:10EA900091EE60E00F94C2F183EC91EE60E00F9490
:10EAA000F5F18CE691EE60E00F94C2F18EE10F94E7
:10EAB0000DF288E90F940DF281E00F940DF20F949E
:10EAC000DCF18BE791EE60E00F94C2F119E0E0E039
:10EAD000F0E010935700E4918E2F0F940DF20F94F5
:10EAE000DCF18AE891EE60E00F94C2F1E3E0F0E03F
:10EAF00010935700E4918E2F0F940DF20F94DCF1D8
:10EB000089E991EE60E00F94C2F1E2E0F0E0109349
:10EB10005700E4918E2F0F940DF20F94DCF188EAE8
:10EB200091EE60E00F94C2F1E1E0F0E01093570045
:10EB30001491812F0F940DF20F94DCF107CF8BE825
:10EB400092EE62E00F94F5F18BE492EE60E00F94A8
:10EB5000F5F10F94DCF100E010E019C0C8016F2D51
:10EB60000F947FFEFF2031F489E492EE60E00F9471
:10EB7000C2F10BC0F092C6008091C00086FFFCCFAE
:10EB80008091C00080648093C0000F5F1F4FC80158
:10EB900081519F41A0E0B0E0ABBFFC01F790BAE229
:10EBA000FB1621F0E2E000301E07C1F60F94DCF105
:10EBB0000F94DCF187E592EE60E00F94F5F10F948D
:10EBC000DCF1CC24DD2400E010E01EC0C8010F946D
:10EBD00077FEF82E882331F489E492EE60E00F94FA
:10EBE000C2F10BC08093C6008091C00086FFFCCFAD
:10EBF0008091C00080648093C000FE1419F00894D6
:10EC0000C11CD11C0F5F1F4FC80181519F41A0E063
:10EC1000B0E0ABBFFC01E790FAE2EF1621F022E092
:10EC20000030120799F60F94DCF10F94DCF182E6C4
:10EC300092EE60E00F94C2F1C60161E070E00F94C3
:10EC400034F20F94DCF10F94DCF110920202109276
:10EC50000302109204021092050278CE89E992EE26
:10EC600062E00F94F5F1279A2F9A16C02F9880E052
:10EC700090E0E0EDF7E03197F1F7019684369105E9
:10EC8000C1F72F9A80E090E0E0EDF7E03197F1F7DF
:10EC9000019684369105C1F78091C00087FFE6CFC9
:10ECA0008091C00087FFFCCF64C485EA92EE62E0E9
:10ECB0000F94F5F140910202509103026091040219
:10ECC0007091050281E020E10F9491F2809102029F
:10ECD00090910302A0910402B091050280509F4FD1
:10ECE000AF4FBF4F8093020290930302A0930402A0
:10ECF000B093050280509041A040B04008F426CE69
:10ED0000A4CF83EB92EE62E00F94F5F140910602FE
:10ED100050910702609108027091090280E020E1A1
:10ED20000F9491F28091060290910702A09108023F
:10ED3000B091090280509F4FAF4FBF4F80930602A2
:10ED400090930702A0930802B0930902FFCD80ECD4
:10ED500092EE62E00F94F5F183E792EE60E00F949B
:10ED6000F5F18FE792EE60E00F94F5F18BE892EE0B
:10ED700060E00F94F5F189E992EE60E00F94F5F10F
:10ED800085EA92EE60E00F94F5F183EB92EE60E09D
:10ED90000F94F5F180EC92EE60E00F94F5F187ECC2
:10EDA00092EE60E00F94F5F188ED92EE60E00F9442
:10EDB000F5F18FED92EE60E00F94F5F18AEE92EEB0
:10EDC00060E00F94F5F183E093EEBDCD87EC92EE19
:10EDD00062E00F94F5F181E40F947BF282E40F94EA
:10EDE0007BF283E40F947BF284E40F947BF285E45E
:10EDF0000F947BF286E40F947BF287E40F947BF20E
:10EE000088E40F947BF28AE40F947BF28BE40F94F6
:10EE10007BF28CE40F947BF299CD88ED92EE62E068
:10EE20000F94F5F1772473948824992409C48FED05
:10EE300092EE62E00F94F5F140910A0250910B02BC
:10EE400060910C0270910D0282E020E10F9491F22A
:10EE500080910A0290910B02A0910C02B0910D02D8
:10EE600080509F4FAF4FBF4F80930A0290930B0289
:10EE7000A0930C02B0930D0269CD8AEE92EE62E08F
:10EE80000F94F5F184EE90EE60E00F94F5F18FECC5
:10EE900091EE60E00F94F5F1662477244301CC5D98
:10EEA000DE4F19821882C452D140D401C301B695F5
:10EEB000A79597958795CA5DDE4F88839983AA8326
:10EEC000BB83C652D140CC5DDE4FA881B981C4520C
:10EED000D1401196CC5DDE4FB983A883C452D14096
:10EEE000CD0162E070E00F9434F2B0E2B093C6005E
:10EEF0008091C00086FFFCCF8091C0008064809329
:10EF0000C000EDE2E093C6008091C00086FFFCCF18
:10EF10008091C00080648093C000F0E2F093C6004E
:10EF20008091C00086FFFCCF8091C00080648093F8
:10EF3000C000CA5DDE4FE880F9800A811B81C6529D
:10EF4000D140BB27A12F902F8F2D0F940DF2CA5DBA
:10EF5000DE4F8881C652D1400F940DF2B0E2FB2EF5
:10EF6000F092C6008091C00086FFFCCF8091C00067
:10EF700080648093C0000DE30093C6008091C000C0
:10EF800086FFFCCF8091C00080648093C00010E2B7
:10EF90001093C6008091C00086FFFCCF8091C00016
:10EFA00080648093C0008BBEF3012791C65DDE4F65
:10EFB0002883CA52D140A22EBB24CC24DD2408943D
:10EFC000611C711C811C911C8BBEF3018791282E42
:10EFD0003324442455240894611C711C811C911C09
:10EFE0008BBEF3013791C55DDE4F3883CB52D140E4
:10EFF0000894611C711C811C911C8BBEF30147910C
:10F00000C45DDE4F4883CC52D140ADEFEA2EAFEF66
:10F01000FA2EAFEF0A2FAFEF1A2F6E0C7F1C801E57
:10F02000911E142D032DF22CEE24EA0CFB1C0C1D5A
:10F030001D1D0F940DF220E22093C6008091C000A8
:10F0400086FFFCCF8091C00080648093C000C65DC5
:10F05000DE4F8881CA52D1400F940DF230E23093D6
:10F06000C6008091C00086FFFCCF8091C000806404
:10F070008093C000C45DDE4F8881CC52D1400F9494
:10F080000DF240E24093C6008091C00086FFFCCFA5
:10F090008091C00080648093C000C55DDE4F888190
:10F0A000CB52D1400F940DF250E25093C6008091A4
:10F0B000C00086FFFCCF8091C00080648093C000B8
:10F0C0008FEFE8168FEFF80680E0080780E018075A
:10F0D00031F484E092EE60E00F94C2F1DFC0D80119
:10F0E000C7018070907CA070B0708050904CA040A0
:10F0F000B040D1F52FEF3FE340E050E0E222F322B1
:10F1000004231523CA5DDE4FA880B980CA80DB8046
:10F11000C652D140AE0CBF1CC01ED11EAA0CBB1CD7
:10F12000CC1CDD1C8EE092EE60E00F94C2F1BB2798
:10F13000A12F902F8F2D0F940DF28E2D0F940DF285
:10F1400030E23093C6008091C00086FFFCCF8091F2
:10F15000C00080648093C0004EE34093C60080915D
:10F16000C00086FFFCCF87C08EE09EEFA0E0B0E03D
:10F17000E822F9220A231B239CE0E91694E9F90608
:10F1800090E0090790E0190709F088C0C45DDE4FE0
:10F19000A881CC52D140EA2EFF2400E010E0102FCD
:10F1A0000F2DFE2CEE24C55DDE4FB881CB52D14031
:10F1B000EB0EF11C011D111DD601C501817090706F
:10F1C000A070B070DC0199278827E80EF91E0A1F8D
:10F1D0001B1F20EF30E040E050E0A222B322C42207
:10F1E000D52241E1AA0CBB1CCC1CDD1C4A95D1F7F1
:10F1F000EA0CFB1C0C1D1D1D81E090E0A0E0B0E0BE
:10F20000282239224A225B2235E1220C331C441C7D
:10F21000551C3A95D1F7E20CF31C041D151D57013E
:10F220006801AA0CBB1CCC1CDD1C85E192EE60E0E1
:10F230000F94C2F1C801AA27BB270F940DF2BB2778
:10F24000A12F902F8F2D0F940DF28E2D0F940DF274
:10F2500090E29093C6008091C00086FFFCCF809121
:10F26000C00080648093C000AEE3A093C60080918C
:10F27000C00086FFFCCF8091C00080648093C000F6
:10F28000C601AA27BB270F940DF2BB27AD2D9C2DDD
:10F290008B2D0F940DF28A2D0F940DF20F94DCF14B
:10F2A000CC5DDE4FE881F981C452D140F99709F471
:10F2B0004DCBF4E0EF2EF12C012D112D6E0C7F1CA7
:10F2C000801E911EF2CD83E093EE62E00F94F5F183
:10F2D0008AE192EE60E00F94C2F18091C00087FF56
:10F2E000FCCF1091C6001F751093C6008091C0001E
:10F2F00086FFFCCF8091C00080648093C0000F9493
:10F30000DCF1812F81548A3108F036C1163409F4BA
:10F3100095C0173490F4133409F44EC0143430F40B
:10F320001134F1F0123409F01DC130C0143409F465
:10F3300059C0153409F016C16BC01A3409F4C4C0A1
:10F340001B3438F4173409F48FC0183409F00AC19B
:10F35000A1C01B3409F4D2C01C3409F003C1E8C0B9
:10F360008FEF81B90DC082B1809582B980E090E0C5
:10F37000E0EDF7E03197F1F70196883C9105C1F790
:10F380008091C00087FFEFCF12B8EFC08FEF84B934
:10F390000DC085B1809585B980E090E0E0EDF7E0A3
:10F3A0003197F1F70196883C9105C1F78091C00033
:10F3B00087FFEFCF15B8D9C08FEF87B90DC088B1DF
:10F3C000809588B980E090E0E0EDF7E03197F1F7C3
:10F3D0000196883C9105C1F78091C00087FFEFCF6F
:10F3E00018B8C3C08FEF8AB90DC08BB180958BB9A7
:10F3F00080E090E0E0EDF7E03197F1F70196883C8E
:10F400009105C1F78091C00087FFEFCF1BB8ADC059
:10F410008FEF8DB90DC08EB180958EB980E090E0F0
:10F42000E0EDF7E03197F1F70196883C9105C1F7DF
:10F430008091C00087FFEFCF1EB897C08FEF80BBD1
:10F440000DC081B3809581BB80E090E0E0EDF7E0F6
:10F450003197F1F70196883C9105C1F78091C00082
:10F4600087FFEFCF11BA81C08FEF83BB0DC084B38C
:10F47000809584BB80E090E0E0EDF7E03197F1F714
:10F480000196883C9105C1F78091C00087FFEFCFBE
:10F4900014BA6BC08FEF809301010FC080910201FD
:10F4A00080958093020180E090E0E0EDF7E03197F5
:10F4B000F1F70196883C9105C1F78091C00087FF64
:10F4C000EDCF1092020151C08FEF809304010FC065
:10F4D0008091050180958093050180E090E0E0ED4A
:10F4E000F7E03197F1F70196883C9105C1F78091DB
:10F4F000C00087FFEDCF1092050137C08FEF8093DA
:10F5000007010FC08091080180958093080180E079
:10F5100090E0E0EDF7E03197F1F70196883C910536
:10F52000C1F78091C00087FFEDCF109208011DC088
:10F530008FEF80930A010FC080910B01809580931B
:10F540000B0180E090E0E0EDF7E03197F1F70196F4
:10F55000883C9105C1F78091C00087FFEDCF1092E4
:10F560000B0103C085E292EEEEC98091C00087FFD7
:10F57000FCCF8091C600EAC988E392EEE4C98CE131
:10F5800091EEE1C988249924933011F1943028F444
:10F59000913089F09230B8F408C0953061F195301F
:10F5A000F0F0963009F048C043C02B3109F042C951
:10F5B00091E06BE13FC96227C15DDE4F2883CF52E6
:10F5C000D14092E037C9B22FA0E0622793E032C960
:10F5D000822F90E0A82BB92B622794E02BC92E3004
:10F5E00009F039C3622795E0C05DDE4F19821882A9
:10F5F000C053D1401FC9E1E0F0E0EC0FFD1FC05D3A
:10F60000DE4F08811981C053D140E00FF11F2083E4
:10F610000F5F1F4FC05DDE4F19830883C053D14079
:10F6200062270A171B0709F005C9D80196E002C92D
:10F63000261709F010C303C0973009F0FBC87724E0
:10F640009981933109F412C19431C8F4963009F4C8
:10F65000D8C0973050F4923009F406C1933009F4C1
:10F660006DC0913009F059C253C0913109F477C08F
:10F67000923108F0BBC0903109F04FC2F5C098310B
:10F6800009F487C0993150F4953109F4EFC09531F0
:10F6900008F4C6C1963109F040C2C2C19A3109F4DA
:10F6A0006CC09A3108F491C09B3109F45BC09D3164
:10F6B00009F033C29D81903359F48F81882311F46E
:10F6C0009EE11CC0813011F091E018C098E916C08D
:10F6D000892F807591F0903539F4E0E0F0E089E011
:10F6E0008093570094910AC0983539F4E3E0F0E034
:10F6F00089E080935700949101C090E01A821B82A8
:10F700008D818C831D829E831F8227E030E009C299
:10F710001A8288E08B8381E48C8386E58D8382E581
:10F720008E8389E48F8383E5888780E589878FE5E9
:10F730008A8782E38B872BE030E0F3C18A818139AD
:10F7400041F0823941F0803911F48FE005C080E04A
:10F7500003C082E001C08AE01A828B8344C0772410
:10F76000739482C08D81882311F48EE12CC0813086
:10F7700011F081E028C088E926C01A82E1E0F0E0BB
:10F7800089E08093570084918B831C8224E030E0D1
:10F79000C8C18B81803589F48C81883039F4E2E0EE
:10F7A000F0E089E08093570084910DC0E0E0F0E044
:10F7B00089E080935700849106C0E3E0F0E089E09F
:10F7C0008093570084911A82DFCF8D81836C99E0FA
:10F7D000E1E0F0E0082E90935700E89507B600FCB2
:10F7E000FDCF1A821B8223E030E09BC180EC8A832C
:10F7F000CE5CDE4F188219821A821B82C253D1401E
:10F800008EC18A8190E0A0E0B0E0582F44273327D2
:10F8100022278B8190E0A0E0B0E0DC0199278827C7
:10F82000282B392B4A2B5B2B8D8190E0A0E0B0E098
:10F83000282B392B4A2B5B2B8C8190E0A0E0B0E089
:10F84000BA2FA92F982F8827282B392B4A2B5B2BCF
:10F85000220F331F441F551FC05EDE4F288339839C
:10F860004A835B83C052D1401A8259C13A81C95C34
:10F87000DE4F3883C753D140CA5CDE4F1882C6536F
:10F88000D1408B81C82EDD24CA5CDE4F488159816E
:10F89000C653D140C42AD52A933109F082C0CE5C28
:10F8A000DE4F88819981AA81BB81C253D1408050AB
:10F8B000904CA340B04030F583E0CE5CDE4FE88052
:10F8C000F9800A811B81C253D140F70100935B008C
:10F8D00080935700E89507B600FCFDCFCE5CDE4F65
:10F8E000088119812A813B81C253D14000501F4FAA
:10F8F0002F4F3F4FCE5CDE4F088319832A833B8313
:10F90000C253D140C05EDE4F488159816A817B81FC
:10F91000C052D140DE011B9631E08C9111962C91A2
:10F9200011971296C75CDE4F2883C953D140C85C3B
:10F93000DE4F1882C853D14090E0C85CDE4FE881AA
:10F94000F981C853D1408E2B9F2B0C01FA01609393
:10F950005B0030935700E89511244E5F5F4F6F4F67
:10F960007F4F0EEFE02E0FEFF02ECE0CDF1CC114F8
:10F97000D10499F685E0C05EDE4F088119812A81A5
:10F980003B81C052D140F80120935B008093570027
:10F99000E89507B600FCFDCF81E180935700E8951C
:10F9A00035C0C05EDE4F88819981AA81BB81C0527B
:10F9B000D140B695A795979587957C018601ABE0D8
:10F9C000AA2EB12CAC0EBD1E0BC0D5016D915D01F0
:10F9D000C7010F947FFE0894E11CF11C01501040F8
:10F9E0000115110591F7A60160E070E0440F551F65
:10F9F000661F771FC05EDE4FE880F9800A811B8199
:10FA0000C052D1404E0D5F1D601F711F1A82C05E33
:10FA1000DE4F488359836A837B83C052D1407FC0C5
:10FA2000FA80C55CDE4FF882CB53D140C65CDE4F16
:10FA30001882CA53D1408B81C82EDD24C65CDE4FAC
:10FA400008811981CA53D140C02AD12A1A828981DA
:10FA5000BE016D5F7F4F843121F59601C05EDE4FA0
:10FA6000E880F9800A811B81C052D1400BBFF701A9
:10FA700087919691DB018C9311969C936E5F7F4FDB
:10FA8000D801C7010296A11DB11DC05EDE4F88835B
:10FA90009983AA83BB83C052D14022503040F1F6F3
:10FAA00036C0C05EDE4F288139814A815B81C052F9
:10FAB000D1400894C108D108760100E010E0089414
:10FAC000C11CD11C0894E11CF11C011D111DE20E8A
:10FAD000F31E041F151F21BDBB27A52F942F832FB5
:10FAE00082BD2F5F3F4F4F4F5F4FF89A80B5DB01CC
:10FAF0008D93BD012E153F054007510761F7C05E8C
:10FB0000DE4F288339834A835B83C052D1409601FC
:10FB10002D5F3F4FFB01108204C080EC8A8322E0FE
:10FB200030E08BE18093C6008091C00086FFFCCF5F
:10FB30008091C00080648093C000C15DDE4FF88179
:10FB4000CF52D140F093C6008091C00086FFFCCF19
:10FB50008091C00080648093C000432F3093C60022
:10FB60008091C00086FFFCCF8091C00080648093AC
:10FB7000C000922F2093C6008091C00086FFFCCF6A
:10FB80008091C00080648093C0008EE08093C600A6
:10FB90008091C00086FFFCCF8091C000806480937C
:10FBA000C00065E1C15DDE4FE880CF52D1406E25D7
:10FBB00069276427FE01319610C090819093C6009A
:10FBC0008091C00086FFFCCF31968091C000806498
:10FBD0008093C0006927215030402115310569F715
:10FBE0006093C6008091C00086FFFCCF8091C0006A
:10FBF00080648093C00085B1805885B9772081F4F6
:10FC0000C15DDE4F0881CF52D1400F5FC15DDE4F35
:10FC10000883CF52D14090E0A0E0B0E00D941AF4F8
:10FC200027982F9880E090E020ED37E0F901319798
:10FC3000F1F7019684369105C9F700008091C00064
:10FC40008D7F8093C00081E180935700E895EE2777
:10FC5000FF270994FFCF90E00D941AF497FB092E2B
:10FC600007260AD077FD04D02ED006D000201AF443
:10FC7000709561957F4F0895F6F7909581959F4F08
:10FC80000895A1E21A2EAA1BBB1BFD010DC0AA1FDD
:10FC9000BB1FEE1FFF1FA217B307E407F50720F0F5
:10FCA000A21BB30BE40BF50B661F771F881F991F70
:10FCB0001A9469F760957095809590959B01AC01B9
:10FCC000BD01CF010895AA1BBB1B51E107C0AA1FAC
:10FCD000BB1FA617B70710F0A61BB70B881F991FED
:10FCE0005A95A9F780959095BC01CD010895F99991
:10FCF000FECF92BD81BDF89A992780B50895262F31
:10FD0000F999FECF1FBA92BD81BD20BD0FB6F89400
:0EFD1000FA9AF99A0FBE01960895F894FFCF63
:040000033000E000E9
:00000001FF
